{
  "contractName": "Election",
  "abi": [
    {
      "constant": true,
      "inputs": [],
      "name": "candidatesCount",
      "outputs": [
        {
          "name": "",
          "type": "uint256"
        }
      ],
      "payable": false,
      "stateMutability": "view",
      "type": "function"
    },
    {
      "constant": true,
      "inputs": [
        {
          "name": "",
          "type": "uint256"
        }
      ],
      "name": "candidates",
      "outputs": [
        {
          "name": "id",
          "type": "uint256"
        },
        {
          "name": "name",
          "type": "string"
        },
        {
          "name": "voteCount",
          "type": "uint256"
        }
      ],
      "payable": false,
      "stateMutability": "view",
      "type": "function"
    },
    {
      "inputs": [],
      "payable": false,
      "stateMutability": "nonpayable",
      "type": "constructor"
    }
  ],
  "bytecode": "0x608060405234801561001057600080fd5b5061005e6040805190810160405280600b81526020017f43616e64696461746520310000000000000000000000000000000000000000008152506100b0640100000000026401000000009004565b6100ab6040805190810160405280600b81526020017f43616e64696461746520320000000000000000000000000000000000000000008152506100b0640100000000026401000000009004565b6101cf565b6001600081546001019190508190555060606040519081016040528060015481526020018281526020016000815250600080600154815260200190815260200160002060008201518160000155602082015181600101908051906020019061011992919061012a565b506040820151816002015590505050565b828054600181600116156101000203166002900490600052602060002090601f016020900481019282601f1061016b57805160ff1916838001178555610199565b82800160010185558215610199579182015b8281111561019857825182559160200191906001019061017d565b5b5090506101a691906101aa565b5090565b6101cc91905b808211156101c85760008160009055506001016101b0565b5090565b90565b610224806101de6000396000f30060806040526004361061004c576000357c0100000000000000000000000000000000000000000000000000000000900463ffffffff1680632d35a8a2146100515780633477ee2e1461007c575b600080fd5b34801561005d57600080fd5b50610066610130565b6040518082815260200191505060405180910390f35b34801561008857600080fd5b506100a760048036038101908080359060200190929190505050610136565b6040518084815260200180602001838152602001828103825284818151815260200191508051906020019080838360005b838110156100f35780820151818401526020810190506100d8565b50505050905090810190601f1680156101205780820380516001836020036101000a031916815260200191505b5094505050505060405180910390f35b60015481565b6000602052806000526040600020600091509050806000015490806001018054600181600116156101000203166002900480601f0160208091040260200160405190810160405280929190818152602001828054600181600116156101000203166002900480156101e85780601f106101bd576101008083540402835291602001916101e8565b820191906000526020600020905b8154815290600101906020018083116101cb57829003601f168201915b50505050509080600201549050835600a165627a7a72305820a5b2a5e218da545cc69bf90c0da90d3467026f32644456f5e08293567d4458ff0029",
  "source": "pragma solidity ^0.4.2;\n\ncontract Election {\n    // model of a candidate\n    struct Candidate {\n        uint id;\n        string name;\n        uint voteCount;\n    }\n\n    // store candidates\n    // fetch candidate\n    mapping(uint => Candidate) public candidates;   \n    // a mapping in solidity is like an associative array (hash) key->uint(id) mapped with Candidate(name)\n\n    // store candidate vote count\n    uint public candidatesCount;\n    /*\n      any value not present within the mapping, when called for will return an empty candidate\n      making it impossible to determine the size of the mapping\n      hence we use candidatesCount\n    */\n\n    constructor () public {\n        addCandidate(\"Candidate 1\");\n        addCandidate(\"Candidate 2\");\n    }\n\n    //function to add a candidate to the mapping\n    function addCandidate(string _name) private {\n        /*\n        solidity follows the convention of naming local variable with a preceding underscore \"_\"\n        */\n        ++candidatesCount;\n        candidates[candidatesCount] = Candidate(candidatesCount, _name, 0);\n    }\n\n}",
  "sourcePath": "/home/anuj/Desktop/proj/election/contracts/Election.sol",
  "compiler": {
    "name": "solc",
    "version": "0.4.24+commit.e67f0147.Emscripten.clang"
  },
  "schemaVersion": "2.0.1",
  "updatedAt": "2018-10-03T01:01:13.129Z"
}